:100000000C9471000C94CB020C94A4020C949900F3
:100010000C9499000C9499000C9499000C949900FC
:100020000C9499000C9499000C9499000C949900EC
:100030000C9499000C9499000C9499000C949900DC
:100040000C945A020C9499000C9428020C9402020D
:100050000C9499000C943D040C9499000C94990014
:100060000C9499000C94990005A84CCDB2D44EB9CB
:100070003836A9020C50B9918688083CA6AAAA2A4B
:10008000BE000000803F0000000023002600290081
:100090000000000800020100000304070000000047
:1000A0000000000000000000250028002B000000D8
:1000B0000000240027002A000404040404040404AB
:1000C0000202020202020303030303030102040803
:1000D00010204080010204081020010204081020B2
:1000E000161511241FBECFEFD8E0DEBFCDBF12E042
:1000F000A0E0B1E0EAEDF1E302C005900D92A63B6D
:10010000B107D9F727E0A6EBB2E001C01D92A437F2
:10011000B207E1F710E0C1E7D0E004C02197FE018B
:100120000E94D118C037D107C9F70E94EF060C947E
:10013000EB180C940000CF92DF92EF92FF920F9396
:100140001F93CF93DF936C017A018B01C0E0D0E065
:10015000CE15DF0589F0D8016D918D01D601ED91A5
:10016000FC910190F081E02DC6010995892B11F4D5
:100170007E0102C02196ECCFC701DF91CF911F9184
:100180000F91FF90EF90DF90CF900895089580E059
:1001900090E00895FC01538D448D252F30E0842F8D
:1001A00090E0821B930B541710F0CF96089501979F
:1001B0000895FC01918D828D981761F0828DDF0189
:1001C000A80FB11D5D968C91928D9F5F9F73928F4A
:1001D00090E008958FEF9FEF0895FC01918D828D3F
:1001E000981731F0828DE80FF11D858D90E008950C
:1001F0008FEF9FEF0895FC01918D228D892F90E064
:10020000805C9F4F821B91098F739927089587ED1A
:1002100096E00E94FB0021E0892B09F420E0822F68
:100220000895FC01848DDF01A80FB11DA35ABF4FB3
:100230002C91848D90E001968F739927848FA689E5
:10024000B7892C93A089B1898C9180648C93938D0C
:10025000848D981306C00288F389E02D80818F7DFC
:1002600080830895EF92FF920F931F93CF93DF93B4
:10027000EC0181E0888F9B8D8C8D981305C0E889F7
:10028000F989808185FD24C0F62E0B8D10E00F5F6B
:100290001F4F0F731127E02E8C8DE8120CC00FB684
:1002A00007FCFACFE889F989808185FFF5CFCE0177
:1002B0000E941101F1CF8B8DFE01E80FF11DE35A71
:1002C000FF4FF0820B8FEA89FB898081806207C033
:1002D000EE89FF896083E889F98980818064808361
:1002E00081E090E0DF91CF911F910F91FF90EF900F
:1002F0000895CF93DF93EC01888D8823C9F0EA89B4
:10030000FB89808185FD05C0A889B9898C9186FD0E
:100310000FC00FB607FCF5CF808185FFF2CFA8890B
:10032000B9898C9185FFEDCFCE010E941101E7CFF5
:10033000DF91CF91089580E090E0892B29F00E9411
:10034000070181110C94000008953FB7F894809143
:100350005D0590915E05A0915F05B091600526B5A1
:10036000A89B05C02F3F19F00196A11DB11D3FBFED
:10037000BA2FA92F982F8827820F911DA11DB11D7B
:10038000BC01CD0142E0660F771F881F991F4A9577
:10039000D1F7089508952FB7F8948091E9039091CB
:1003A000EA03A091EB03B091EC032FBF40915805F5
:1003B0005091590560915A0570915B05841B950B0E
:1003C000A60BB70B8F369105A105B10528F08091DA
:1003D00057058F5F809357052FB7F8948091E903F5
:1003E0009091EA03A091EB03B091EC032FBF8093AF
:1003F000580590935905A0935A05B0935B0508954D
:100400000E94D7181F920F920FB60F9211242F93AC
:100410003F934F935F936F937F938F939F93AF938C
:10042000BF93EF93FF9387ED96E00E941101FF9138
:10043000EF91BF91AF919F918F917F916F915F915C
:100440004F913F912F910F900FBE0F901F901895D5
:100450001F920F920FB60F9211242F938F939F9399
:10046000EF93FF93E091E706F091E8068081E09139
:10047000ED06F091EE0682FD12C090818091F006AB
:100480008F5F8F732091F106821751F0E091F00693
:10049000F0E0E952F94F958F8093F00601C080811A
:1004A000FF91EF919F918F912F910F900FBE0F9021
:1004B0001F9018951F920F920FB60F9211242F9331
:1004C0003F938F939F93AF93BF938091E903909154
:1004D000EA03A091EB03B091EC0330915C0523E0BB
:1004E000230F2D3720F40196A11DB11D05C026E86C
:1004F000230F0296A11DB11D20935C058093E90393
:100500009093EA03A093EB03B093EC0380915D0515
:1005100090915E05A0915F05B09160050196A11DC7
:10052000B11D80935D0590935E05A0935F05B09328
:100530006005BF91AF919F918F913F912F910F9047
:100540000FBE0F901F9018951F920F920FB60F922B
:1005500011242F933F934F935F936F937F938F93C8
:100560009F93AF93BF93EF93FF93E0910301F091BB
:1005700004010995FF91EF91BF91AF919F918F91E8
:100580007F916F915F914F913F912F910F900FBE8F
:100590000F901F9018951F920F920FB60F92112473
:1005A0002F933F934F935F936F937F938F939F937B
:1005B000AF93BF93EF93FF93E0910101F09102019C
:1005C0000995FF91EF91BF91AF919F918F917F918D
:1005D0006F915F914F913F912F910F900FBE0F90B0
:1005E0001F901895FC0180819BE2DF011D929A9576
:1005F000E9F780830895CF93DF93EC012091060102
:1006000030E0C901019668E170E00E9468188093AB
:100610000601FC01EE0FFF1FE754FC4FD183C0839E
:10062000DF91CF9108956F927F928F929F92AF92B8
:10063000BF92CF92DF92EF92FF920F931F93CF93CF
:10064000DF931F92CDB7DEB76C014A015B0160906A
:10065000D606712CC30101966FE170E00E94681804
:100660007C01E091D506F0E08E179F0739F18CE010
:10067000869D8001879D100D11240F591A4F45E06A
:1006800050E0B601C80129830E94DC1884E0F8011B
:10069000868380869186A286B3862981211102C035
:1006A00080E001C080E89CE0969DF001979DF00DF0
:1006B0001124EF59FA4F8783E092D6060F90DF910D
:1006C000CF911F910F91FF90EF90DF90CF90BF904F
:1006D000AF909F908F907F906F9008956F927F92D0
:1006E0008F929F92AF92BF92CF92DF92EF92FF9242
:1006F0000F931F93CF93DF931F92CDB7DEB76C019B
:100700004A015B016090D606712CC30101966FE12E
:1007100070E00E9468187C01E091D506F0E08E1729
:100720009F0739F18CE0869D8001879D100D112473
:100730000F591A4F45E050E0B601C80129830E94C5
:10074000DC1883E0F801868380869186A286B386D2
:100750002981211102C080E001C080E89CE0969DC3
:10076000F001979DF00D1124EF59FA4F8783E09225
:10077000D6060F90DF91CF911F910F91FF90EF90D0
:10078000DF90CF90BF90AF909F908F907F906F90B1
:100790000895CF93DF934091D606242F30E0C9010E
:1007A0000196EFE1F0E0BF010E946818EC01809132
:1007B000D506682F70E0C617D707F9F0481781F003
:1007C000C9010197BF010E9468184CE0489FF001E1
:1007D000499FF00D1124EF59FA4F8681813069F05D
:1007E0008CE0829FF001839FF00D1124EF59FA4FA6
:1007F000108281E08683C093D606DF91CF91089561
:10080000CF92DF92EF92FF920E94A5016B017C01D3
:100810008091530590915405A0915505B0915605CE
:100820000097A105B10569F0A7019601281B390BB6
:100830004A0B5B0BDA01C90181349244AF40B10528
:10084000B8F04091B6025091B7026091B802709131
:10085000B90220E083EA92E00E9413030E94C903D8
:10086000C0925305D0925405E0925505F09256057A
:10087000FF90EF90DF90CF9008951F920F920FB6E8
:100880000F9211240F931F932F933F934F935F93D6
:100890006F937F938F939F93AF93BF93CF93DF9388
:1008A000EF93FF93209178003091790080910001BF
:1008B00090E0FC01E75BFA4FD081C091F003FC01AE
:1008C000E25BFA4F808190E0880F991FFC01E655AA
:1008D000FC4F40815181241B350B4FE0C49F8001A8
:1008E0001124800F911FFC01E654FD4F31832083BA
:1008F000D11139C00E94A501F801E654FD4F62876D
:1009000073878487958781E086878C0F803109F40F
:1009100080E0482F50E09FE0899FF0011124E654C9
:10092000FD4F96859923A1F091E0980F9093EF03E6
:100930009091EF03903111F41092EF032091ED03A9
:100940003091EE032F5F3F4F3093EE032093ED0382
:100950009FE0949FF001959FF00D1124E654FD4F08
:1009600016868093F00380917C00ED2FF0E0E55F28
:10097000FE4F807F9081892B80937C00D093000173
:10098000FF91EF91DF91CF91BF91AF919F918F91A7
:100990007F916F915F914F913F912F911F910F9197
:1009A0000F900FBE0F901F901895A9E4B5E031E0AD
:1009B0003C93EEE4F5E024E0208392E011969C93D2
:1009C0001197118283E012968C93129732831396BB
:1009D0002C931397938314961C9284830895E0912B
:1009E000D706F091D8060190F081E02D682F87EDB1
:1009F00096E00994CF93DF9390E0FC01E453FF4F1E
:100A00002491FC01E854FF4F84918823C1F090E0C9
:100A1000880F991FFC01E255FF4FC591D491FC014D
:100A2000EC55FF4FA591B4919FB7F8943881822F70
:100A3000809583238883EC91E22BEC939FBFDF9119
:100A4000CF910895009769F0FC0101900020E9F72B
:100A50003197AF01481B590BBC0187ED96E00C9410
:100A60009B0080E090E008958F929F92AF92BF929A
:100A70000F931F93CF93DF93CDB7DEB7A1970FB638
:100A8000F894DEBF0FBECDBF19A2423008F44AE091
:100A90008E010F5D1F4F842E912CA12CB12CA5012E
:100AA00094010E947C18E62FB901CA010150110976
:100AB000EA3014F4E05D01C0E95CD801EC93232B2B
:100AC000242B252B61F7C8010E942205A1960FB6A1
:100AD000F894DEBF0FBECDBFDF91CF911F910F9174
:100AE000BF90AF909F908F900895CF92DF92EF923A
:100AF000FF92CF93DF9397FF19C06B017C018DE2CA
:100B00000E94EF04EC0166277727CB016C197D0961
:100B10008E099F094AE00E9434058C0F9D1FDF91CA
:100B2000CF91FF90EF90DF90CF9008954AE0DF9152
:100B3000CF91FF90EF90DF90CF900C943405CF933E
:100B4000DF93BC01990F880B990B0E947505EC018E
:100B500089E592E00E9422058C0F9D1FDF91CF91C5
:100B600008950C942205CF93DF930E942205EC0197
:100B700089E592E00E9422058C0F9D1FDF91CF91A5
:100B800008954F925F926F927F928F929F92AF9251
:100B9000BF92CF92DF92EF92FF926B017C01B42E55
:100BA0009B01AC010E941318882319F089EA92E096
:100BB00027C026013701E89477F82FEF3FEF4FE782
:100BC0005FE7C301B2010E94131881110DC02FEF1E
:100BD0003FEF4FE75FE7C301B2010E94B01518165F
:100BE0001CF48DEA92E00CC02FEF3FEF4FE75FE47B
:100BF000C701B6010E945317181684F481EB92E0E6
:100C0000FF90EF90DF90CF90BF90AF909F908F902C
:100C10007F906F905F904F900C9422052FEF3FEFE5
:100C20004FE75FECC701B6010E94B01587FDE6CF24
:100C300020E030E0A901C701B6010E94B01587FF8E
:100C400009C08DE20E94EF044C01F7FAF094F7F826
:100C5000F09402C0812C912CA12C60E070E080E027
:100C60009FE3AB1440F420E030E040E251E40E9406
:100C7000BA15A394F6CF9B01AC01C701B6010E943F
:100C800044152B013C010E9433166B017C010E942C
:100C900062169B01AC01C301B2010E9443152B01F6
:100CA0003C014AE0C701B6010E9434057C01E80C12
:100CB000F91CBB2029F08EE20E94EF04E80EF91E19
:100CC000DB2CDD2021F120E030E040E251E4C301E3
:100CD000B2010E9458172B013C010E9433164B01B0
:100CE000A12CB12C4AE0C501B4010E943405E80EE4
:100CF000F91EC501B4010E9462169B01AC01C3013B
:100D0000B2010E9443152B013C01DA94DACFC701EE
:100D1000FF90EF90DF90CF90BF90AF909F908F901B
:100D20007F906F905F904F9008958F929F92AF92B7
:100D3000BF92CF92DF92EF92FF920F931F93CF93C8
:100D4000DF931F92CDB7DEB77C014A015B01E091D2
:100D5000D606F0E0CF0101966FE170E00E946818BE
:100D60008C01A091D506B0E08A179B07D9F08CE0E2
:100D70008E9FA0018F9F500D1124CA018F599A4F49
:100D80006C0145E050E0B70129830E94DC1882E045
:100D9000F601868380869186A286B3862981278381
:100DA0000093D6060F90DF91CF911F910F91FF9086
:100DB000EF90DF90CF90BF90AF909F908F9008956D
:100DC000CF93DF934AE00E943405EC0189E592E07D
:100DD0000E9422058C0F9D1FDF91CF910895CF9324
:100DE000DF93CDB7DEB7C456D1090FB6F894DEBF96
:100DF0000FBECDBF789484B5826084BD84B5816018
:100E000084BD85B5826085BD85B5816085BD8091D5
:100E10006E00816080936E0010928100809181004D
:100E20008260809381008091810081608093810045
:100E3000809180008160809380008091B100846007
:100E40008093B1008091B00081608093B000809168
:100E50007A00846080937A0080917A008260809327
:100E60007A0080917A00816080937A0080917A0084
:100E7000806880937A001092C100E091E706F091BB
:100E8000E80682E08083E091E306F091E4061082B8
:100E9000E091E506F091E60680E180831092EF068E
:100EA000E091EB06F091EC0686E08083E091E906A4
:100EB000F091EA06808180618083E091E906F091FB
:100EC000EA06808188608083E091E906F091EA0675
:100ED000808180688083E091E906F091EA06808154
:100EE0008F7D80838BE592E00E94B30582E491E0E0
:100EF0000E94B1058DEE93E00E949F0521E04DEE2A
:100F000053E060E070E088E591E00E946E0389E0C4
:100F10000E94FA04E9E9F0E08491E5EDF0E09491B3
:100F2000E1ECF0E0E491E11112C08EE696E8AAEE61
:100F3000BEE38093150590931605A0931705B09313
:100F4000180520E048E750E060E070E045C08823E5
:100F500039F1833091F038F48130A9F0823001F515
:100F600084B58F7D12C0873091F08830A1F0843035
:100F7000B9F4809180008F7D03C0809180008F77CD
:100F8000809380000DC084B58F7784BD09C08091A7
:100F9000B0008F7703C08091B0008F7D8093B00048
:100FA000F0E0EE0FFF1FEA57FF4FA591B491EC91CF
:100FB0009E2309F4BACF8BEE98EEADE5BFE38093A4
:100FC000150590931605A0931705B093180520E01A
:100FD00040EF50E060E070E08DE591E00E946E032C
:100FE000609115057091160580911705909118056F
:100FF0009B01AC010E945817609301057093020594
:1010000080930305909304050E94C90310927B000E
:1010100010927A000E94D5048091000190E004961D
:1010200065E070E00E946818806480937C001092F4
:101030007E00EBE0F1E041E050E025E02E0F309142
:101040007E00CA01019002C0880F991F0A94E2F73E
:10105000832B80937E002E13F2CF10927B008EEEB6
:1010600080937A0078941092B6021092B702109290
:10107000B8021092B90283E00E94FA048BEC91E06E
:10108000909304018093030180916900837F8860BD
:1010900080936900E99A9FB7F8948091EF030FE07D
:1010A000809FA0011124FA01E654FD4F26852111ED
:1010B00002C09FBF6AC016860285138524853585C8
:1010C0000B871C872D873E8720E030E0BA01A901FD
:1010D000440F551FFA01E60FF71FE654FD4F01902C
:1010E000F081E02DA1E0B0E0AC0FBD1FA40FB51F53
:1010F0001196FC93EE932F5F3F4F2530310539F762
:101100008F5F803108F080E08093EF038091F003DF
:101110002091EF03821B9FBF813810F0805FFCCFCE
:1011200090910C04981710F480930C04509048058B
:10113000F2E05F1609F44FC0F51510F40C94BF12DD
:1011400051100C949F100E94D5048091F10390914E
:10115000F20301969093F2038093F1038C33964946
:1011600050F082E691E00E94B3051092F2031092D3
:10117000F1035524539450924805809148058430DA
:1011800009F484C0863009F46FC19FB7F894809148
:10119000F0032091EF03821B9FBF813810F0805F26
:1011A000FCCF8430A8F487ED96E00E94CA004597F2
:1011B0007CF080914805843010F00E9400048091FA
:1011C000D506C82ED12C9091D60698130C94A21453
:1011D0000E949B0160CF8091200590912105909302
:1011E00023058093220589819A819093210580931C
:1011F0002005E090F903F090FA034FEFE41AF40AA7
:10120000F092FA03E092F9030E94FB0259E2E5161C
:10121000F10408F4B0CF809122059091230597FF47
:10122000AACF809120059091210597FDA4CF8CE055
:1012300092E00E94B105CB84DC84ED84FE84809131
:10124000F5039091F603A091F703B091F80397018D
:101250008601081B190B2A0B3B0BC901B8010E9420
:10126000E00610920C04C092F503D092F603E092CF
:10127000F703F092F8031092FA031092F903109218
:10128000EE031092ED0303E0502E75CF8B859C8505
:10129000AD85BE850091190510911A0520911B0599
:1012A00030911C05BC01CD01601B710B820B930BAF
:1012B00020910D0530910E0540E050E00E947C1811
:1012C00020930004309301044093020450930304DC
:1012D0008DE192E00E94B1056091000470910104DB
:1012E00080910204909103040E94E0060091FC03A7
:1012F0001091FD032091FE033091FF0368017901F5
:10130000CC0CDD1CEE1CFF1C8091000490910104AC
:10131000A0910204B0910304BC01CD016C0D7D1DB0
:101320008E1D9F1DA9019801E2E0220F331F441F6B
:10133000551FEA95D1F70E947C182093FB0388E3A0
:1013400092E00E94B1056091FB0370E080E090E0C4
:101350004AE00E94340589E592E00E9422056091EE
:10136000FC037091FD038091FE039091FF030E94A6
:1013700062162B013C016091000470910104809180
:101380000204909103040E9462164B015C01F0E19B
:101390002F2EF1E03F2E0DE214E019A708A70DE172
:1013A00014E01DA30CA301E010E0D1016D917D912B
:1013B0008D919D911D0120E030E0A9010E9444150E
:1013C00025E33AEF4EE85CE30E9458176B017C017D
:1013D000B801012E000C880B990B0E9464162BEDAE
:1013E0003FE049EC50E40E945817A30192010E948B
:1013F000581720E030E040EA50E40E94BA15A501F9
:1014000094010E94BA159B01AC01C701B6010E946C
:1014100044156B017C010E94B515E8A5F9A56193FF
:10142000719381939193F9A7E8A7C701B6010E9430
:10143000C517ACA1BDA16D937D938D939D93BDA365
:10144000ACA30F5F1F4F0530110509F0AECF10920E
:101450000E0510920D051092190510921A051092A2
:101460001B0510921C0565C660911E0570911F0535
:1014700080E090E00E9462169B01AC0160E070E0A9
:1014800080E89FE30E94BA152B966CAF7DAF8EAFBC
:101490009FAF2B97CB84DC84ED84FE84CAA6DBA6A9
:1014A000ECA6FDA68091190590911A05A0911B0547
:1014B000B0911C05C81AD90AEA0AFB0AC701B6018D
:1014C0000E9462162DEB37E346E855E30E94581759
:1014D0002F966CAF7DAF8EAF9FAF2F97E090150525
:1014E000F09016050091170510911805EBAEFCAEB3
:1014F0000DAF1EAFA80197012B966CAD7DAD8EADE3
:101500009FAD2B970E9458176B017C012BAD3CAD12
:101510004DAD5EAD0E9458174B015C0160912805EE
:101520007091290580912A0590912B050E946416DF
:10153000A70196010E9458176B017C0120E030E062
:10154000A901609111057091120580911305909188
:1015500014050E94B015811108C0C0921105D092E7
:101560001205E0921305F092140524EA30E74DE7E6
:101570005FE36091110570911205809113059091C0
:1015800014050E9458172B013C0120E037ED43E27F
:101590005CE3C701B6010E9458179B01AC01C3016F
:1015A000B2010E94441523966CAF7DAF8EAF9FAF02
:1015B0002397609311057093120580931305909300
:1015C00014059B01AC010E9458176CA37DA38EA348
:1015D0009FA360912C0570912D0580912E0590910F
:1015E0002F050E946216A50194010E9458172CA194
:1015F0003DA14EA15FA10E9443156B017C0120E03B
:1016000030E0A9010E94B01518161CF0C12CD12C95
:101610007601C701B6010E94D3174B015C016093AC
:101620003C0570933D0580933E0590933F05609186
:101630003205709133058091300590913105681B1A
:10164000790B072E000C880B990B0E9464162BADAA
:101650003CAD4DAD5EAD0E94581720E030E040E05B
:101660005FE30E9458172B013C0160934005709383
:101670004105809342059093430520E030E048EC1B
:1016800052E4C501B4010E94531718166CF4A50169
:101690009401C301B2010E94BA156D966CAF7DAF83
:1016A0008EAF9FAF6D970AC000E010E020E83FE3E7
:1016B0006D960CAF1DAF2EAF3FAF6D9760910D05CE
:1016C00070910E0580910F05909110058B01080F08
:1016D000191F61961FAF0EAF61971093100500930D
:1016E0000F052091090530910A0540910B05509195
:1016F0000C052F966CAD7DAD8EAD9FAD2F970E94E2
:10170000441565966CAF7DAF8EAF9FAF65976093C4
:10171000090570930A0580930B0590930C0520E052
:1017200030E0A901609105057091060580910705DB
:10173000909108050E94B01581113AC0609138055A
:101740007091390580913A0590913B050E9464168D
:101750002B962CAD3DAD4EAD5FAD2B970E9458172B
:101760002091010530910205409103055091040537
:101770000E9458172CA13DA14EA15FA10E944315C4
:10178000A70196010E94BA15AB01BC014093050563
:1017900050930605609307057093080524E08CE5D7
:1017A00092E00E9495060E94C90311E01AAB01C0A5
:1017B0001AAAC0900505D0900605E0900705F090A4
:1017C0000805A196CCAEDDAEEEAEFFAEA19720909F
:1017D0001B0430901C04E0905104F09052040091DE
:1017E000530410915404EBAAFCAA0DAB1EAB00915C
:1017F000190410911A04C0904D04D0904E04E0904A
:101800004F04F0905004CCA2DDA2EEA2FFA225E589
:1018100034E039A728A74DE354E059AB48AB1FA6E5
:101820001EA627961CAE1DAE1EAE1FAE2797A8A5FE
:10183000B9A58C91882309F419C2EEA5FFA5E05E35
:10184000FE4F80809180A280B3802B962CAD3DAD61
:101850004EAD5FAD2B97C501B4010E9458176B01C7
:101860007C01A50194010E9458172B013C012BAD6E
:101870003CAD4DAD5EADC701B6010E9458176FABD0
:1018800078AF89AF9AAFE8A5F9A56385748585859A
:1018900096850E946416A70196010E9458176B0155
:1018A0007C0120E030E0A901A8A9B9A96D917D9142
:1018B0008D919C910E94B015811106C0E8A9F9A9EB
:1018C000C082D182E282F38224EA30E74DE75FE30F
:1018D000A8A9B9A96D917D918D919C910E945817ED
:1018E0004B015C0120E037ED43E25CE3C701B60148
:1018F0000E9458179B01AC01C501B4010E94441518
:101900006B017C01E8A9F9A96083718382839383C9
:101910009B01AC0123966CAD7DAD8EAD9FAD239741
:101920000E9458174B015C01A8A5B9A51F966D919F
:101930007D918D919C9152970E946216A301920114
:101940000E9458172B013C01A7019601C701B6015F
:101950000E9458179B01AC01C301B2010E944315BC
:101960006B017C0120E030E0A9010E94B01518163F
:101970001CF0C12CD12C7601C701B6010E94D317EF
:101980009B01AC01E8A5F9A5678F70A381A392A381
:1019900027966CAD7DAD8EAD9FAD27970E94441507
:1019A00027966CAF7DAF8EAF9FAF2797A8A5B9A53F
:1019B00057966D917D918D919C915A970E946416D6
:1019C0002FA938AD49AD5AAD0E945817A501940111
:1019D0000E94431569966CAF7DAF8EAF9FAF69973C
:1019E000E8A5F9A5638D748D858D968D0E9464168A
:1019F0002FA938AD49AD5AAD0E945817A5019401E1
:101A00000E9443156B017C0169962CAD3DAD4EAD36
:101A10005FAD6997A1966CAD7DAD8EAD9FADA19781
:101A20000E9458179B01AC01C701B6010E944315E3
:101A30006FAB78AF89AF9AAFEEA5FFA5E35DFB4F23
:101A4000C080D180E280F380EEA5FFA5E35EFB4F6E
:101A500080809180A280B38069962CAD3DAD4EAD63
:101A60005FAD6997C701B6010E9458172B013C0171
:101A70002FA938AD49AD5AADC501B4010E94581720
:101A80009B01AC01C301B2010E9443152B013C0133
:101A9000A8A5B9A593966D937D938D939C939697E6
:101AA00069962CAD3DAD4EAD5FAD6997C501B401F2
:101AB0000E9458174B015C012FA938AD49AD5AADB2
:101AC000C701B6010E9458179B01AC01C501B401C2
:101AD0000E9444156B017C01E8A5F9A567A370A7D6
:101AE00081A792A7B101330C880B990B0E94641651
:101AF0004B015C01A30192012F966CAD7DAD8EADC3
:101B00009FAD2F970E9458179B01AC01C501B401EE
:101B10000E9444150E942C161B01B801110F880B5E
:101B2000990B0E9464164B015C01A70196012F9648
:101B30006CAD7DAD8EAD9FAD2F970E9458179B0168
:101B4000AC01C501B4010E9444150E942C168B0102
:101B50008BA99CA9ADA9BEA9F82FE92F3A2F2B2F4D
:101B60000196A11DB11D41E124164EE034062CF072
:101B7000F0E12F1AFEE03F0AEFCF4F2F5E2F632FC9
:101B8000722FDB01CA014150510961097109E0EF6F
:101B90002E16E1EF3E062CF480EF281A81EF380A6A
:101BA000F0CF4CA15DA16EA17FA17A01F62FE72FA6
:101BB0004F5F5F4F6F4F7F4F01312EE012071CF0D8
:101BC00000511E40F2CF4701AF2EBE2EB501A40139
:101BD00031E0831A9108A108B108003FE1EF1E0728
:101BE0001CF4005F114FF2CFB42EE52F362F272FB4
:101BF000CBA8DCA8EDA8FEA8F1E0CF16D104E10443
:101C0000F0E7FF061CF0B7FF13C00FC0CBA8DCA89D
:101C1000EDA8FEA8C114D104E104F0E9FF0644F4E4
:101C2000181619061A061B061CF480E090E0DC0169
:101C3000CCA0DDA0EEA0FFA0F1E0CF16D104E1041E
:101C4000F0E7FF061CF077FF1EC019C0CCA0DDA096
:101C5000EEA0FFA0C114D104E104F0E9FF069CF45A
:101C6000141615061606170654F00DC08BA99CA96C
:101C7000ADA9BEA9BCA0EDA13EA12FA104C0B12C6D
:101C8000E0E030E020E048A559A5455D5F4F59A749
:101C900048A76EA57FA56C5F7F4F7FA76EA748A959
:101CA00059A94C5F5F4F59AB48AB6031710549F0A2
:101CB0008BAB9CABADABBEABBCA2EDA33EA32FA345
:101CC000B6CD10931A0400931904B0924D04E0931A
:101CD0004E0430934F042093500430921C04209201
:101CE0001B048093510490935204A0935304B09327
:101CF00054048091150490911604A0911704B0919A
:101D000018040097A105B10599F0CAA4DBA4ECA4BE
:101D1000FDA4C81AD90AEA0AFB0A11E001E4C016B8
:101D200002E4D0060FE0E006F10418F410E001C070
:101D300011E0C0900701D0900801E0900901F090F7
:101D40000A0120E030EC49E754ECC701B6010E94DB
:101D5000B015882399F1A701960127966CAD7DAD4A
:101D60008EAD9FAD27970E9443159F772DEC3CECDD
:101D70004CE85FE30E945317181604F18091110498
:101D800090911204A0911304B0911404CAA4DBA48E
:101D9000ECA4FDA4C81AD90AEA0AFB0A01E021E46E
:101DA000C21622E4D2062FE0E206F10408F400E0B5
:101DB000111105C0002309F40EC101C001E04091DA
:101DC0003C0550913D0560913E0570913F0522E034
:101DD00081E692E00E9495066196CEACDFAC6197F9
:101DE000C114D10469F120E030E0A90165966CAD21
:101DF0007DAD8EAD9FAD65970E945317181604F503
:101E0000B60180E090E00E94621665962CAD3DAD73
:101E10004EAD5FAD65970E94BA15AB01BC0123E0E2
:101E200086E692E00E9495061092100510920F052A
:101E30001092090510920A0510920B0510920C05DC
:101E400023E06D964CAD5DAD6EAD7FAD6D978BE6CD
:101E500092E00E949506CAA4DBA4ECA4FDA4C09263
:101E60001504D0921604E0921704F092180400238F
:101E700009F4AFC085E0EFE8F2E0DE015F96019083
:101E80000D928A95E1F785E0E4E9F2E0DE015A96E9
:101E900001900D928A95E1F785E0E9E9F2E0DE0133
:101EA000559601900D928A95E1F785E0EEE9F2E012
:101EB000DE01509601900D928A95E1F704E714E057
:101EC00030E3F32EF8017F978081882309F45EC008
:101ED000FAA2D8014D915D916D917C9123E0CE01E4
:101EE0004F960E949506FD8EF801448155816681CA
:101EF000778121E0CE014A960E949506F88ED8019E
:101F000018964D915D916D917C911B9721E0CE01CA
:101F100045960E94950620913C0530913D054091E3
:101F20003E0550913F05F801608171818281938166
:101F30000E9458174B015C0120E030E040EF51E473
:101F40000E9453171816C4F4D80114964D905D9052
:101F50006D907C901797A3019201C501B4010E9476
:101F6000531787FD09C0A5019401C301B2010E9466
:101F7000BA15AB01BC0104C040E050E060E87FE36B
:101F8000FB8A24E0CE0140960E949506F394055DFD
:101F90001F4FB4E3FB1296CFCAA4DBA4ECA4FDA4AC
:101FA000C0921104D0921204E0921304F09214042F
:101FB0002796ECACFDAC0EAD1FAD2797E092070164
:101FC000F09208010093090110930A0101E00AABA5
:101FD00002C011E01AAB80910D0490910E04A09103
:101FE0000F04B09110040097A105B10581F0CAA4B7
:101FF000DBA4ECA4FDA4C81AD90AEA0AFB0A01E48E
:10200000C01602E4D0060FE0E006F10440F1409172
:10201000510450915204609153047091540421E092
:1020200080E792E00E946E0340914D0450914E046F
:1020300060914F047091500421E085E792E00E9486
:102040006E03CAA4DBA4ECA4FDA4C0920D04D0923C
:102050000E04E0920F04F092100401E00AABCAA44F
:10206000DBA4ECA4FDA4C0921905D0921A05E0925D
:102070001B05F0921C0510920E0510920D058DE1C6
:1020800095E00E94F20285E594E00E94F20280E869
:1020900094E00E94F2028BEA94E00E94F20286ED44
:1020A00094E00E94F202DAA8DD2009F444C00E9404
:1020B000000440910C0450E060E070E021E08AE709
:1020C00092E00E946E034091ED035091EE0360E0B8
:1020D00070E021E08FE792E00E946E032FB7F89442
:1020E0008091E9039091EA03A091EB03B091EC0396
:1020F0002FBFAC01BD012AE07695679557954795AE
:102100002A95D1F7409308045093090460930A0478
:1021100070930B048093040490930504A093060429
:10212000B093070421E084E892E00E9413030E9428
:10213000C90310920C0485E08093480526C8CC247E
:10214000C3945C101AC880910501882321F18DE1A8
:1021500095E00E94F20285E594E00E94F20280E898
:1021600094E00E94F2028BEA94E00E94F20286ED73
:1021700094E00E94F2021092050110920C048B85EB
:102180009C85AD85BE858093190590931A05A09313
:102190001B05B0931C0589819A819093210580933A
:1021A00020052B813C8130935904209358042D81C4
:1021B0003E8130938404209383042F8138853093AB
:1021C000AF042093AE0429853A853093DA04209336
:1021D000D90420911D05211104C0181619060CF010
:1021E00043C020911E0530911F052115310541F492
:1021F0009093330580933205909331058093300599
:1022000040913005509131058417950724F490933F
:1022100031058093300540913205509133054817C0
:10222000590724F49093330580933205092E000C4E
:10223000AA0BBB0B409128055091290560912A05F6
:1022400070912B05840F951FA61FB71F809328053B
:1022500090932905A0932A05B0932B05C9010196F7
:1022600090931F0580931E0525E5E22E24E0F22EB3
:10227000F701208183819481211103C0181619066A
:102280005CF5218132812115310521F4968B858BF6
:10229000948B838B438954898417950714F4948B0A
:1022A000838B458956894817590714F4968B858B7B
:1022B000092E000CAA0BBB0B4385548565857685DA
:1022C000840F951FA61FB71F83879487A587B6879E
:1022D0002F5F3F4F32832183BB9625E0E130F20729
:1022E00041F68091F3039091F40301969093F403E7
:1022F0008093F303803A9F4010F40C94BB0887E767
:1023000091E00E94B3058B859C85AD85BE850091CB
:10231000190510911A0520911B0530911C05BC016F
:10232000CD01601B710B820B930B2091F303309155
:10233000F40340E050E00E947C182093FC033093AB
:10234000FD034093FE035093FF038CE891E00E944D
:10235000B1056091FC037091FD038091FE039091A3
:10236000FF030E94E00650901D0520911E0530914C
:102370001F05511011C02115310509F469C0809164
:10238000280590912905A0912A05B0912B05892B4C
:102390008A2B8B2B09F45CC040E050E0609128054B
:1023A0007091290580912A0590912B050E949E1815
:1023B00081E080931D058091AA039091AB03892B46
:1023C00009F494C2109228051092290510922A054A
:1023D00010922B0510921F0510921E0588E991E0BE
:1023E000A2962FAFA297A3963FAFA397A4964FAF05
:1023F000A497A5965FAFA5970E94B105A2962FADB1
:10240000A297A3963FADA397B901330F880B990B01
:102410000E9475058CEA91E00E94B105609130053B
:1024200070913105072E000C880B990B0E947505E1
:1024300086EB91E00E94B1058091320590913305C1
:102440000E949F05812C912C540110E001E018C0DE
:1024500088EB91E00E94B3050C94BB08211531056F
:10246000C1F4FBE2EF0EF11C2FEF821A920AA20ACE
:10247000B20A34E083169104A104B10409F45FC0E8
:10248000D7018C9111962D913C911297882331F3AD
:102490000AC01B968D919D910D90BC91A02D892B0A
:1024A0008A2B8B2BF1F240E050E0F70163857485B5
:1024B000858596850E949E1829013A011F5FD701E4
:1024C0000C93F4013196EE0FFF1FE655FC4F80810F
:1024D0009181892B09F40FC2F701138614861586A2
:1024E00016861282118282ED91E00E94B1054AE0C7
:1024F000C501B4010E9434058BED91E00E94B10545
:10250000B201550C880B990B0E9475058CEA91E07D
:102510000E94B105D70153966D917C915497072E77
:10252000000C880B990B0E94750586EB91E00E94C8
:10253000B105F701858996890E949F0592CF1111F7
:1025400007C089EE91E00E94B305512C0C94BB08A2
:102550001092F4031092F30381E08093050110922E
:10256000190510921A0510921B0510921C058DE199
:1025700095E00E94F20282E0582E0C94BB0893E092
:10258000D92E5D104AC08091190590911A05A0912D
:102590001B05B0911C05892B8A2B8B2B61F48B8535
:1025A0009C85AD85BE858093190590931A05A093EF
:1025B0001B05B0931C0580912005909121059093F7
:1025C00023058093220589819A8190932105809328
:1025D00020050E94FB02809122059091230597FD22
:1025E00002C00C94BB08809120059091210597FFB3
:1025F00002C00C94BB0880910D0590910E050196C8
:1026000090930E0580930D058837910510F40C9476
:10261000BB0814E0512E0C94BB0885E0E82E5E1038
:102620000C94BD088091190590911A05A0911B0585
:10263000B0911C05892B8A2B8B2B81F48B859C8573
:10264000AD85BE858093190590931A05A0931B054F
:10265000B0931C0510920E0510920D05E980FA80CA
:102660008091200590912105909323058093220568
:10267000F0922105E0922005C7010E94FB02E09143
:102680000601E85E8091FB03E81BE83110F0E85199
:10269000FCCFF0E0EE0FFF1FE754FC4FC080D1806D
:1026A000409128055091290560912A0570912B05CC
:1026B000C7010F2C000CAA0BBB0B840F951FA61F84
:1026C000B71F8093280590932905A0932A05B093FE
:1026D0002B0540912C0550912D0560912E05709190
:1026E0002F05970122243302600D711D229F400D9A
:1026F000511D621D721D32037209500D611D721D44
:1027000032037209500D611D721D112440932C0576
:1027100050932D0560932E0570932F0520E030E037
:10272000A9016091050570910605809107059091BA
:1027300008050E94B015811126C0409138055091BE
:10274000390560913A0570913B0587019601222475
:102750003102600D711D209F400D511D621D721DC3
:1027600030037209500D611D721D12037209500D64
:10277000611D721D112440933805509339056093F3
:102780003A0570933B0580911E0590911F050196B7
:1027900090931F0580931E0580913205909133051B
:1027A0008E159F0524F4F0923305E0923205809156
:1027B000300590913105E816F90624F4F0923105C0
:1027C000E0923005DE011396E5E5F4E06D907D9032
:1027D0008081882309F474C08381948196838583E2
:1027E00074826382A301072C000C660B770B838431
:1027F0009484A584B684480D591D6A1D7B1D4387AA
:1028000054876587768747855089618972898301F6
:1028100022241102600D711D009F400D511D621D8B
:10282000721D10037209500D611D721D1003720993
:10283000500D611D721D11244787508B618B728B67
:102840004789508D618D728D930187012224130277
:10285000600D711D029F400D511D621D721D1203FE
:102860007209500D611D721D30037209500D611DFA
:10287000721D1124478B508F618F728F438D548D41
:10288000658D768D860122241302600D711D029FD5
:10289000400D511D621D721D12037209500D611D04
:1028A000721D30037209500D611D721D1124438F7A
:1028B000548F658F768F8181928101969283818377
:1028C000BB9615E0E130F10709F080CF8091220539
:1028D0009091230597FD02C00C94BB0880912005C0
:1028E0009091210597FF0AC00C94BB083093AB036D
:1028F0002093AA0367CD31832083EECD80910D050F
:1029000090910E05019690930E0580930D058B8591
:102910009C85AD85BE854091190550911A05609141
:102920001B0570911C05841B950BA60BB70B8034FF
:102930009244AF40B10510F40C94BB08A6E05A2EA7
:102940000C94BB088CE08C9DF0018D9DF00D112442
:10295000EF59FA4FF7808681882309F451C08130FE
:1029600029F48BE592E00E94B3054AC0F7FE04C04B
:1029700089E892E00E94B1058CE08C9D80018D9DDC
:10298000100D11240F591A4FC8010E94B1058BE890
:1029900092E00E94B105D80116968C91169783306B
:1029A000C9F0843009F1823039F54F2D4F7741F06D
:1029B00050E018966D917D918D919C911B9707C069
:1029C000F801608571858285938542E050E00E9420
:1029D000C10512C0D80118966D917D918D919C9181
:1029E0001B970E94750508C0F80160857185828576
:1029F00093854AE00E9434058DE892E00E94B1057B
:102A00008CE08C9DF0018D9DF00D1124EF59FA4F53
:102A1000108216828091D50690E001966FE170E0F9
:102A20000E9468188093D5060C94E808E7EDF6E05C
:102A30001382128288EE93E0A0E0B0E08483958355
:102A4000A683B78384E391E09183808385EC90E053
:102A50009587848784EC90E09787868780EC90E068
:102A6000918B808B81EC90E0938B828B82EC90E059
:102A7000958B848B86EC90E0978B868B118E128ED3
:102A8000138E148E08955058BB27AA270E945B15F9
:102A90000C9405170E94CC1638F00E94D31620F033
:102AA00039F49F3F19F426F40C94C9160EF4E095FE
:102AB000E7FB0C94C316E92F0E942A1758F3BA17A4
:102AC000620773078407950720F079F4A6F50C9444
:102AD0004C170EF4E0950B2EBA2FA02D0B01B90167
:102AE00090010C01CA01A0011124FF27591B99F084
:102AF000593F50F4503E68F11A16F040A22F232F90
:102B0000342F4427585FF3CF469537952795A795DF
:102B1000F0405395C9F77EF41F16BA0B620B730B86
:102B2000840BBAF09150A1F0FF0FBB1F661F771FF7
:102B3000881FC2F70EC0BA0F621F731F841F48F4AC
:102B4000879577956795B795F7959E3F08F0B0CF35
:102B50009395880F08F09927EE0F9795879508951C
:102B60000E949F1608F481E008950E94DC16E39508
:102B70000C9416170E94CE150C9405170E94D316BC
:102B800058F00E94CC1640F029F45F3F29F00C94D5
:102B9000C31651110C944D170C94C9160E942A1794
:102BA00068F39923B1F3552391F3951B550BBB277C
:102BB000AA2762177307840738F09F5F5F4F220FC1
:102BC000331F441FAA1FA9F335D00E2E3AF0E0E8B8
:102BD00032D091505040E695001CCAF72BD0FE2F02
:102BE00029D0660F771F881FBB1F26173707480796
:102BF000AB07B0E809F0BB0B802DBF01FF2793584E
:102C00005F4F3AF09E3F510578F00C94C3160C9438
:102C10004D175F3FE4F3983ED4F38695779567951B
:102C2000B795F7959F5FC9F7880F911D9695879582
:102C300097F90895E1E0660F771F881FBB1F6217A1
:102C400073078407BA0720F0621B730B840BBA0B5F
:102C5000EE1F88F7E09508950E9433166894B1112D
:102C60000C944D1708950E94321788F09F5798F0E2
:102C7000B92F9927B751B0F0E1F0660F771F881F81
:102C8000991F1AF0BA95C9F714C0B13091F00E949B
:102C90004C17B1E008950C944C17672F782F8827B4
:102CA000B85F39F0B93FCCF3869577956795B395C2
:102CB000D9F73EF490958095709561957F4F8F4F31
:102CC0009F4F0895E89409C097FB3EF49095809536
:102CD000709561957F4F8F4F9F4F9923A9F0F92FE2
:102CE00096E9BB279395F695879577956795B79560
:102CF000F111F8CFFAF4BB0F11F460FF1BC06F5F46
:102D00007F4F8F4F9F4F16C0882311F096E911C057
:102D1000772321F09EE8872F762F05C0662371F078
:102D200096E8862F70E060E02AF09A95660F771F8C
:102D3000881FDAF7880F9695879597F90895990F68
:102D40000008550FAA0BE0E8FEEF16161706E80775
:102D5000F907C0F012161306E407F50798F0621B96
:102D6000730B840B950B39F40A2661F0232B242B6B
:102D7000252B21F408950A2609F4A140A6958FEF8A
:102D8000811D811D089597F99F6780E870E060E0DC
:102D900008959FEF80EC089500240A9416161706F4
:102DA00018060906089500240A941216130614063C
:102DB000050608950C94C9160E943217D8F3E894BA
:102DC000E0E0BB279F57F0F02AED3FE049EC06C05A
:102DD000EE0FBB0F661F771F881F28F0B23A6207FD
:102DE0007307840728F0B25A620B730B840BE395C8
:102DF0009A9572F7803830F49A95BB0F661F771F4B
:102E0000881FD2F790480C941A18092E0394000CCE
:102E100011F4882352F0BB0F40F4BF2B11F460FF74
:102E200004C06F5F7F4F8F4F9F4F0895EF93E0FF78
:102E300007C0A2EA2AED3FE049EC5FEB0E945B1578
:102E40000E9405170F90039401FC9058E8E6F0E00B
:102E50000C942D1857FD9058440F551F59F05F3FA3
:102E600071F04795880F97FB991F61F09F3F79F0AC
:102E700087950895121613061406551FF2CF46952E
:102E8000F1DF08C0161617061806991FF1CF8695B0
:102E90007105610508940895E894BB276627772794
:102EA000CB0197F908950E949F1608F48FEF0895BB
:102EB0000E946B170C9405170E94CC1638F00E94E4
:102EC000D31620F0952311F00C94C3160C94C91658
:102ED00011240C944D170E942A1770F3959FC1F38B
:102EE000950F50E0551F629FF001729FBB27F00DB8
:102EF000B11D639FAA27F00DB11DAA1F649F66270D
:102F0000B00DA11D661F829F2227B00DA11D621F5B
:102F1000739FB00DA11D621F839FA00D611D221F15
:102F2000749F3327A00D611D231F849F600D211DF9
:102F3000822F762F6A2F11249F5750409AF0F1F07C
:102F400088234AF0EE0FFF1FBB1F661F771F881FE5
:102F500091505040A9F79E3F510580F00C94C31644
:102F60000C944D175F3FE4F3983ED4F38695779524
:102F70006795B795F795E7959F5FC1F7FE2B880F8B
:102F8000911D9695879597F908959F930E94DC1659
:102F90000F9007FCEE5F0C94161719F416F40C94BE
:102FA000C9160C9418180E943217B8F39923C9F364
:102FB000B6F39F57550B87FF0E9426180024A0E602
:102FC00040EA900180585695979528F4805C660FEA
:102FD000771F881F20F026173707480730F4621B39
:102FE000730B840B202931294A2BA695179407943B
:102FF000202531254A2758F7660F771F881F20F0B4
:1030000026173707480730F4620B730B840B200D2B
:10301000311D411DA09581F7B901842F9158880F6A
:103020009695879508950E949F16880B990B089591
:103030009F3F31F0915020F4879577956795B7952C
:10304000880F911D9695879597F908959150504056
:10305000660F771F881FD2F708959F938F937F93F2
:103060006F93FF93EF939B01AC010E945817EF9170
:10307000FF910E9441182F913F914F915F910C94C5
:103080005817DF93CF931F930F93FF92EF92DF9226
:103090007B018C01689406C0DA2EEF010E946B1749
:1030A000FE01E894A5912591359145915591A6F39E
:1030B000EF010E945B15FE019701A801DA9469F700
:1030C000DF90EF90FF900F911F91CF91DF910895C6
:1030D00097FB072E16F4009407D077FD09D00E94C5
:1030E000BD1807FC05D03EF4909581959F4F08953B
:1030F000709561957F4F0895A1E21A2EAA1BBB1B04
:10310000FD010DC0AA1FBB1FEE1FFF1FA217B307B3
:10311000E407F50720F0A21BB30BE40BF50B661FC9
:10312000771F881F991F1A9469F76095709580958D
:1031300090959B01AC01BD01CF010895052E97FB31
:103140001EF400940E94B51857FD07D00E947C1809
:1031500007FC03D04EF40C94B5185095409530956B
:1031600021953F4F4F4F5F4F0895909580957095F3
:1031700061957F4F8F4F9F4F0895AA1BBB1B51E155
:1031800007C0AA1FBB1FA617B70710F0A61BB70BD7
:10319000881F991F5A95A9F780959095BC01CD017C
:1031A0000895EE0FFF1F0590F491E02D099481E042
:1031B00090E0F8940C94EB18FB01DC014150504076
:1031C00048F001900D920020C9F701C01D924150B6
:0A31D0005040E0F70895F894FFCF97
:1031DA0001CA01CA01011800C079C400010203042E
:1031EA0000000000000000000000000000000000D5
:1031FA000000963E0000963E0000963E00005C3DB0
:10320A000000000032019B00CA007901FB00D900CE
:10321A00ED0023454D4F4E5458332D636F6E74693C
:10322A006E756F75733D76006576657200766D61B1
:10323A006E002353544154455F5354414220636FF7
:10324A006D706C657465002353544154455F534354
:10325A00414E20636F6D706C6574650023747361F1
:10326A006D706C65203D2000237673746174732E33
:10327A0076616C5F6D65616E203D2000206D696E20
:10328A002F6D61783D002F00234552524F52202D59
:10329A00206E6F20766F6C7461676520696E707539
:1032AA007400236973746174735B005D2E76616CBC
:1032BA005F6D65616E203D2000234552524F5220BA
:1032CA002D206E6F2063757272656E7420696E7040
:1032DA0075747320656E61626C6564002353544192
:1032EA0054455F5A45524F202D20743D00235354B4
:1032FA004154455F465245513A766D61696E735F36
:10330A00706572696F643D002353544154455F46AA
:10331A005245513A766D61696E735F717561646C7D
:10332A006F6F6B6261636B3D000D0A007664656CBA
:10333A000076726D7300766672710076637273003E
:10334A00656E616300656E72650061646364006E38
:10335A006F7672007570746D005F003A002C006918
:10336A00726D300070616330007072653000706F8A
:10337A0077300070756C7365006E616E00696E66F9
:06338A00006F76660000F2
:00000001FF
