:100000000C9471000C94CB020C94A4020C949900F3
:100010000C9499000C9499000C9499000C949900FC
:100020000C9499000C9499000C9499000C949900EC
:100030000C9499000C9499000C9499000C949900DC
:100040000C945A020C9499000C9428020C9402020D
:100050000C9499000C9462040C9499000C949900EF
:100060000C9499000C94990005A84CCDB2D44EB9CB
:100070003836A9020C50B9918688083CA6AAAA2A4B
:10008000BE000000803F0000000023002600290081
:100090000000000800020100000304070000000047
:1000A0000000000000000000250028002B000000D8
:1000B0000000240027002A000404040404040404AB
:1000C0000202020202020303030303030102040803
:1000D00010204080010204081020010204081020B2
:1000E000661511241FBECFEFD8E0DEBFCDBF12E0F2
:1000F000A0E0B1E0EAE7F2E302C005900D92AA3B6E
:10010000B107D9F727E0AAEBB2E001C01D92AC37E6
:10011000B207E1F710E0C1E7D0E004C02197FE018B
:100120000E942119C037D107C9F70E9414070C9407
:100130003B190C940000CF92DF92EF92FF920F9345
:100140001F93CF93DF936C017A018B01C0E0D0E065
:10015000CE15DF0589F0D8016D918D01D601ED91A5
:10016000FC910190F081E02DC6010995892B11F4D5
:100170007E0102C02196ECCFC701DF91CF911F9184
:100180000F91FF90EF90DF90CF900895089580E059
:1001900090E00895FC01538D448D252F30E0842F8D
:1001A00090E0821B930B541710F0CF96089501979F
:1001B0000895FC01918D828D981761F0828DDF0189
:1001C000A80FB11D5D968C91928D9F5F9F73928F4A
:1001D00090E008958FEF9FEF0895FC01918D828D3F
:1001E000981731F0828DE80FF11D858D90E008950C
:1001F0008FEF9FEF0895FC01918D228D892F90E064
:10020000805C9F4F821B91098F73992708958FED12
:1002100096E00E94FB0021E0892B09F420E0822F68
:100220000895FC01848DDF01A80FB11DA35ABF4FB3
:100230002C91848D90E001968F739927848FA689E5
:10024000B7892C93A089B1898C9180648C93938D0C
:10025000848D981306C00288F389E02D80818F7DFC
:1002600080830895EF92FF920F931F93CF93DF93B4
:10027000EC0181E0888F9B8D8C8D981305C0E889F7
:10028000F989808185FD24C0F62E0B8D10E00F5F6B
:100290001F4F0F731127E02E8C8DE8120CC00FB684
:1002A00007FCFACFE889F989808185FFF5CFCE0177
:1002B0000E941101F1CF8B8DFE01E80FF11DE35A71
:1002C000FF4FF0820B8FEA89FB898081806207C033
:1002D000EE89FF896083E889F98980818064808361
:1002E00081E090E0DF91CF911F910F91FF90EF900F
:1002F0000895CF93DF93EC01888D8823C9F0EA89B4
:10030000FB89808185FD05C0A889B9898C9186FD0E
:100310000FC00FB607FCF5CF808185FFF2CFA8890B
:10032000B9898C9185FFEDCFCE010E941101E7CFF5
:10033000DF91CF91089580E090E0892B29F00E9411
:10034000070181110C94000008953FB7F894809143
:10035000650590916605A0916705B091680526B581
:10036000A89B05C02F3F19F00196A11DB11D3FBFED
:10037000BA2FA92F982F8827820F911DA11DB11D7B
:10038000BC01CD0142E0660F771F881F991F4A9577
:10039000D1F7089508952FB7F8948091E9039091CB
:1003A000EA03A091EB03B091EC032FBF40916005ED
:1003B000509161056091620570916305841B950BF6
:1003C000A60BB70B8F369105A105B10528F08091DA
:1003D000F5038F5F8093F5032FB7F8948091E903BD
:1003E0009091EA03A091EB03B091EC032FBF8093AF
:1003F000600590936105A0936205B093630508952D
:100400000E9427191F920F920FB60F9211242F935B
:100410003F934F935F936F937F938F939F93AF938C
:10042000BF93EF93FF938FED96E00E941101FF9130
:10043000EF91BF91AF919F918F917F916F915F915C
:100440004F913F912F910F900FBE0F901F901895D5
:100450001F920F920FB60F9211242F938F939F9399
:10046000EF93FF93E091EF06F091F0068081E09129
:10047000F506F091F60682FD12C090818091F80693
:100480008F5F8F732091F906821751F0E091F80683
:10049000F0E0E152F94F958F8093F80601C080811A
:1004A000FF91EF919F918F912F910F900FBE0F9021
:1004B0001F9018951F920F920FB60F9211242F9331
:1004C0003F938F939F93AF93BF938091E903909154
:1004D000EA03A091EB03B091EC033091640523E0B3
:1004E000230F2D3720F40196A11DB11D05C026E86C
:1004F000230F0296A11DB11D209364058093E9038B
:100500009093EA03A093EB03B093EC03809165050D
:1005100090916605A0916705B09168050196A11DAF
:10052000B11D8093650590936605A0936705B09310
:100530006805BF91AF919F918F913F912F910F903F
:100540000FBE0F901F9018951F920F920FB60F922B
:1005500011242F933F934F935F936F937F938F93C8
:100560009F93AF93BF93EF93FF93E0910301F091BB
:1005700004010995FF91EF91BF91AF919F918F91E8
:100580007F916F915F914F913F912F910F900FBE8F
:100590000F901F9018951F920F920FB60F92112473
:1005A0002F933F934F935F936F937F938F939F937B
:1005B000AF93BF93EF93FF93E0910101F09102019C
:1005C0000995FF91EF91BF91AF919F918F917F918D
:1005D0006F915F914F913F912F910F900FBE0F90B0
:1005E0001F901895FC0180819BE2DF011D929A9576
:1005F000E9F780830895CF93DF93EC012091060102
:1006000030E0C901019668E170E00E94B81880935B
:100610000601FC01EE0FFF1FE754FC4FD183C0839E
:10062000DF91CF9108956F927F928F929F92AF92B8
:10063000BF92CF92DF92EF92FF920F931F93CF93CF
:10064000DF931F92CDB7DEB76C014A015B0160906A
:10065000DE06712CC30101966FE170E00E94B818AC
:100660007C01E091DD06F0E08E179F0739F18CE008
:10067000869D8001879D100D112407591A4F45E072
:1006800050E0B601C80129830E942C1984E0F801CA
:10069000868380869186A286B3862981211102C035
:1006A00080E001C080E89CE0969DF001979DF00DF0
:1006B0001124E759FA4F8783E092DE060F90DF910D
:1006C000CF911F910F91FF90EF90DF90CF90BF904F
:1006D000AF909F908F907F906F9008956F927F92D0
:1006E0008F929F92AF92BF92CF92DF92EF92FF9242
:1006F0000F931F93CF93DF931F92CDB7DEB76C019B
:100700004A015B016090DE06712CC30101966FE126
:1007100070E00E94B8187C01E091DD06F0E08E17D1
:100720009F0739F18CE0869D8001879D100D112473
:1007300007591A4F45E050E0B601C80129830E94CD
:100740002C1983E0F801868380869186A286B38681
:100750002981211102C080E001C080E89CE0969DC3
:10076000F001979DF00D1124E759FA4F8783E0922D
:10077000DE060F90DF91CF911F910F91FF90EF90C8
:10078000DF90CF90BF90AF909F908F907F906F90B1
:100790000895CF93DF934091DE06242F30E0C90106
:1007A0000196EFE1F0E0BF010E94B818EC018091E2
:1007B000DD06682F70E0C617D707F9F0481781F0FB
:1007C000C9010197BF010E94B8184CE0489FF00191
:1007D000499FF00D1124E759FA4F8681813069F065
:1007E0008CE0829FF001839FF00D1124E759FA4FAE
:1007F000108281E08683C093DE06DF91CF91089559
:10080000CF92DF92EF92FF920E94A5016B017C01D3
:1008100080915C0590915D05A0915E05B0915F05AA
:100820000097A105B10511F1A7019601281B390B0D
:100830004A0B5B0BDA01C90181349244AF40B10528
:10084000E0F14091F1035091F2036091F303709154
:10085000F4038091580590915905A0915A05B091E3
:100860005B05481759076A077B0739F14091F10387
:100870005091F2036091F3037091F40320E087EA52
:1008800092E00E9413030E94C903C0925C05D092BB
:100890005D05E0925E05F0925F058091F103909115
:1008A000F203A091F303B091F40380935805909361
:1008B0005905A0935A05B0935B05FF90EF90DF9028
:1008C000CF9008951F920F920FB60F9211240F939D
:1008D0001F932F933F934F935F936F937F938F93C8
:1008E0009F93AF93BF93CF93DF93EF93FF932091A9
:1008F0007800309179008091000190E0FC01E25B8A
:10090000FA4FD081C091F003FC01ED5AFA4F80817B
:1009100090E0880F991FFC01E655FC4F4081518102
:10092000241B350B4FE0C49F80011124800F911FC1
:10093000FC01E654FD4F31832083D11139C00E9460
:10094000A501F801E654FD4F628773878487958778
:1009500081E086878C0F803109F480E0482F50E0D9
:100960009FE0899FF0011124E654FD4F968599235D
:10097000A1F091E0980F9093EF039091EF039031E5
:1009800011F41092EF032091ED033091EE032F5FED
:100990003F4F3093EE032093ED039FE0949FF001CF
:1009A000959FF00D1124E654FD4F16868093F003B9
:1009B00080917C00ED2FF0E0E55FFE4F807F90811D
:1009C000892B80937C00D0930001FF91EF91DF9100
:1009D000CF91BF91AF919F918F917F916F915F91D7
:1009E0004F913F912F911F910F910F900FBE0F903C
:1009F0001F901895AEE4B5E031E03C93E3E5F5E0F7
:100A000024E0208392E011969C931197118283E059
:100A100012968C931297328313962C931397938389
:100A200014961C9284830895E091DF06F091E0060D
:100A30000190F081E02D682F8FED96E00994CF931F
:100A4000DF9390E0FC01E453FF4F2491FC01E85454
:100A5000FF4F84918823C1F090E0880F991FFC011B
:100A6000E255FF4FC591D491FC01EC55FF4FA59184
:100A7000B4919FB7F8943881822F8095832388831F
:100A8000EC91E22BEC939FBFDF91CF9108950097FB
:100A900069F0FC0101900020E9F73197AF01481B94
:100AA000590BBC018FED96E00C949B0080E090E028
:100AB00008958F929F92AF92BF920F931F93CF93FF
:100AC000DF93CDB7DEB7A1970FB6F894DEBF0FBEA8
:100AD000CDBF19A2423008F44AE08E010F5D1F4FCE
:100AE000842E912CA12CB12CA50194010E94CC182C
:100AF000E62FB901CA0101501109EA3014F4E05D92
:100B000001C0E95CD801EC93232B242B252B61F742
:100B1000C8010E944705A1960FB6F894DEBF0FBE2C
:100B2000CDBFDF91CF911F910F91BF90AF909F905C
:100B30008F900895CF92DF92EF92FF92CF93DF9341
:100B400097FF19C06B017C018DE20E941405EC0136
:100B500066277727CB016C197D098E099F094AE02A
:100B60000E9459058C0F9D1FDF91CF91FF90EF9050
:100B7000DF90CF9008954AE0DF91CF91FF90EF9002
:100B8000DF90CF900C945905CF93DF93BC01990F60
:100B9000880B990B0E949A05EC018DE592E00E946A
:100BA00047058C0F9D1FDF91CF9108950C94470549
:100BB000CF93DF930E944705EC018DE592E00E9400
:100BC00047058C0F9D1FDF91CF9108954F925F9243
:100BD0006F927F928F929F92AF92BF92CF92DF924D
:100BE000EF92FF926B017C01B42E9B01AC010E943D
:100BF0006318882319F08DEA92E027C02601370197
:100C0000E89477F82FEF3FEF4FE75FE7C301B201BA
:100C10000E94631881110DC02FEF3FEF4FE75FE790
:100C2000C301B2010E94001618161CF481EB92E079
:100C30000CC02FEF3FEF4FE75FE4C701B6010E9402
:100C4000A317181684F485EB92E0FF90EF90DF90E5
:100C5000CF90BF90AF909F908F907F906F905F905C
:100C60004F900C9447052FEF3FEF4FE75FECC70124
:100C7000B6010E94001687FDE6CF20E030E0A90112
:100C8000C701B6010E94001687FF09C08DE20E94CD
:100C900014054C01F7FAF094F7F8F09402C0812C97
:100CA000912CA12C60E070E080E09FE3AB1440F455
:100CB00020E030E040E251E40E940A16A394F6CF0F
:100CC0009B01AC01C701B6010E9494152B013C01A8
:100CD0000E9483166B017C010E94B2169B01AC013D
:100CE000C301B2010E9493152B013C014AE0C701E8
:100CF000B6010E9459057C01E80CF91CBB2029F0C3
:100D00008EE20E941405E80EF91EDB2CDD2021F195
:100D100020E030E040E251E4C301B2010E94A81794
:100D20002B013C010E9483164B01A12CB12C4AE0FF
:100D3000C501B4010E945905E80EF91EC501B401B0
:100D40000E94B2169B01AC01C301B2010E9493152F
:100D50002B013C01DA94DACFC701FF90EF90DF90CE
:100D6000CF90BF90AF909F908F907F906F905F904B
:100D70004F9008958F929F92AF92BF92CF92DF9241
:100D8000EF92FF920F931F93CF93DF931F92CDB7F4
:100D9000DEB77C014A015B01E091DE06F0E0CF01A5
:100DA00001966FE170E00E94B8188C01A091DD06F9
:100DB000B0E08A179B07D9F08CE08E9FA0018F9F2F
:100DC000500D1124CA0187599A4F6C0145E050E03B
:100DD000B70129830E942C1982E0F6018683808660
:100DE0009186A286B386298127830093DE060F9021
:100DF000DF91CF911F910F91FF90EF90DF90CF90F7
:100E0000BF90AF909F908F900895CF93DF934AE06B
:100E10000E945905EC018DE592E00E9447058C0F78
:100E20009D1FDF91CF910895CF93DF93CDB7DEB7AC
:100E3000C456D1090FB6F894DEBF0FBECDBF78946B
:100E400084B5826084BD84B5816084BD85B58260CF
:100E500085BD85B5816085BD80916E008160809380
:100E60006E001092810080918100826080938100E9
:100E700080918100816080938100809180008160F9
:100E8000809380008091B10084608093B100809154
:100E9000B00081608093B00080917A00846080937C
:100EA0007A0080917A00826080937A0080917A0043
:100EB000816080937A0080917A00806880937A00C4
:100EC0001092C100E091EF06F091F00682E080837D
:100ED000E091EB06F091EC061082E091ED06F091C6
:100EE000EE0680E180831092F706E091F306F09120
:100EF000F40686E08083E091F106F091F2068081AD
:100F000080618083E091F106F091F2068081886033
:100F10008083E091F106F091F20680818068808301
:100F2000E091F106F091F20680818F7D80838FE55C
:100F300092E00E94D80586E491E00E94D6058EEEEC
:100F400093E00E94C40521E04EEE53E060E070E0C3
:100F50008CE591E00E946E0389E00E941F05E9E99B
:100F6000F0E08491E5EDF0E09491E1ECF0E0E491C3
:100F7000E11112C08EE696E8AAEEBEE380931A0550
:100F800090931B05A0931C05B0931D0520E048E736
:100F900050E060E070E045C0882339F1833091F083
:100FA00038F48130A9F0823001F584B58F7D12C00C
:100FB000873091F08830A1F08430B9F480918000BE
:100FC0008F7D03C0809180008F77809380000DC05B
:100FD00084B58F7784BD09C08091B0008F7703C03E
:100FE0008091B0008F7D8093B000F0E0EE0FFF1F86
:100FF000EA57FF4FA591B491EC919E2309F4BACF23
:101000008BEE98EEADE5BFE380931A0590931B0538
:10101000A0931C05B0931D0520E040EF50E060E078
:1010200070E081E691E00E946E0360911A05709174
:101030001B0580911C0590911D059B01AC010E9430
:10104000A817609306057093070580930805909391
:1010500009050E94C90310927B0010927A000E9439
:10106000FA048091000190E0049665E070E00E942F
:10107000B818806480937C0010927E00EBE0F1E071
:1010800041E050E025E02E0F30917E00CA01019032
:1010900002C0880F991F0A94E2F7832B80937E0089
:1010A0002E13F2CF10927B008EEE80937A0078940C
:1010B0001092F1031092F2031092F3031092F403D2
:1010C00083E00E941F058BEC91E0909304018093D4
:1010D000030180916900837F886080936900E99AA9
:1010E0009FB7F8948091EF030FE0809FA001112437
:1010F000FA01E654FD4F2685211102C09FBF6AC048
:10110000168602851385248535850B871C872D87D8
:101110003E8720E030E0BA01A901440F551FFA01D3
:10112000E60FF71FE654FD4F0190F081E02DA1E09E
:10113000B0E0AC0FBD1FA40FB51F1196FC93EE934A
:101140002F5F3F4F2530310539F78F5F803108F031
:1011500080E08093EF038091F0032091EF03821BE6
:101160009FBF813810F0805FFCCF909111049817D9
:1011700010F480931104F0904D05F2E0FF1609F48D
:10118000E2C0FF1510F40C948013F1100C9456116A
:101190000E94FA048091F6039091F70301969093D0
:1011A000F7038093F6038C33964950F086E691E07E
:1011B0000E94D8051092F7031092F603FF24F394CF
:1011C000F0924D0580914D05843009F415C18630AB
:1011D00009F400C29FB7F8948091F0032091EF03C7
:1011E000821B9FBF813810F0805FFCCF843008F0F5
:1011F000A7C08091F5038823D9F02FB7F8943091D8
:10120000F5038091F1039091F203A091F303B09163
:10121000F403830F911DA11DB11D8093F1039093E1
:10122000F203A093F303B093F4031092F5032FBFDE
:101230008FED96E00E94CA0045970CF481C0809122
:101240004D05843010F00E9400048091DD06C82E08
:10125000D12C9091DE06981709F472C08CE08C9D19
:10126000F0018D9DF00D1124E759FA4FF78086812A
:10127000882309F451C0813029F48FE592E00E945F
:10128000D8054AC0F7FE04C08DE892E00E94D6055A
:101290008CE08C9D80018D9D100D112407591A4FF3
:1012A000C8010E94D6058FE892E00E94D605D801B9
:1012B00016968C9116978330C9F0843009F18230EC
:1012C00039F54F2D4F7741F050E018966D917D9193
:1012D0008D919C911B9707C0F8016085718582856F
:1012E000938542E050E00E94E60512C0D8011896AE
:1012F0006D917D918D919C911B970E949A0508C0DC
:10130000F80160857185828593854AE00E945905C0
:1013100081E992E00E94D6058CE08C9DF0018D9DC4
:10132000F00D1124E759FA4F108216828091DD06E4
:1013300090E001966FE170E00E94B8188093DD069E
:101340000E949B01CDCE809125059091260590931A
:1013500028058093270589819A819093260580939B
:1013600025050091FE031091FF030F5F1F4F10939F
:10137000FF030093FE030E94FB020932110508F4EB
:101380001FCF809127059091280597FF19CF809155
:1013900025059091260597FD13CF80E192E00E94EC
:1013A000D605CB84DC84ED84FE848091FA03909191
:1013B000FB03A091FC03B091FD0397018601081B7C
:1013C000190B2A0B3B0BC901B8010E9405071092AB
:1013D0001104C092FA03D092FB03E092FC03F09256
:1013E000FD031092FF031092FE031092EE03109281
:1013F000ED0303E0F02EE4CE8B859C85AD85BE85A4
:1014000000911E0510911F052091200530912105A6
:10141000BC01CD01601B710B820B930B2091120557
:101420003091130540E050E00E94CC182093050451
:1014300030930604409307045093080481E292E03D
:101440000E94D605609105047091060480910704FE
:10145000909108040E940507009101041091020474
:10146000209103043091040468017901CC0CDD1C47
:10147000EE1CFF1C8091050490910604A0910704C6
:10148000B0910804BC01CD016C0D7D1D8E1D9F1D0A
:10149000A9019801E2E0220F331F441F551FEA956E
:1014A000D1F70E94CC18209300048CE392E00E94B4
:1014B000D6056091000470E080E090E04AE00E9470
:1014C00059058DE592E00E944705609101047091F5
:1014D000020480910304909104040E94B2162B012F
:1014E0003C0160910504709106048091070490917D
:1014F00008040E94B2164B015C01F4E12F2EF1E0CA
:101500003F2E02E314E019A708A702E214E01DA38E
:101510000CA301E010E0D1016D917D918D919D9121
:101520001D0120E030E0A9010E94941525E33AEF67
:101530004EE85CE30E94A8176B017C01B801012E04
:10154000000C880B990B0E94B4162BED3FE049EC80
:1015500050E40E94A817A30192010E94A81720E05E
:1015600030E040EA50E40E940A16A50194010E946E
:101570000A169B01AC01C701B6010E9494156B01CC
:101580007C010E940516E8A5F9A5619371938193EA
:101590009193F9A7E8A7C701B6010E941518ACA15D
:1015A000BDA16D937D938D939D93BDA3ACA30F5F60
:1015B0001F4F0530110509F0AECF109213051092A0
:1015C000120510921E0510921F0510922005109210
:1015D000210565C6609123057091240580E090E0A7
:1015E0000E94B2169B01AC0160E070E080E89FE3CE
:1015F0000E940A162B966CAF7DAF8EAF9FAF2B97D4
:10160000CB84DC84ED84FE84CAA6DBA6ECA6FDA612
:1016100080911E0590911F05A0912005B091210594
:10162000C81AD90AEA0AFB0AC701B6010E94B21613
:101630002DEB37E346E855E30E94A8172F966CAFD1
:101640007DAF8EAF9FAF2F97E0901A05F0901B05EE
:1016500000911C0510911D05EBAEFCAE0DAF1EAF49
:10166000A80197012B966CAD7DAD8EAD9FAD2B97EC
:101670000E94A8176B017C012BAD3CAD4DAD5EAD5A
:101680000E94A8174B015C0160912D0570912E05F9
:1016900080912F05909130050E94B416A701960104
:1016A0000E94A8176B017C0120E030E0A901609145
:1016B00016057091170580911805909119050E94E3
:1016C0000016811108C0C0921605D0921705E0924D
:1016D0001805F092190524EA30E74DE75FE36091C1
:1016E00016057091170580911805909119050E94B3
:1016F000A8172B013C0120E037ED43E25CE3C70172
:10170000B6010E94A8179B01AC01C301B2010E945F
:10171000941523966CAF7DAF8EAF9FAF23976093E8
:1017200016057093170580931805909319059B0172
:10173000AC010E94A8176CA37DA38EA39FA3609108
:1017400031057091320580913305909134050E94E6
:10175000B216A50194010E94A8172CA13DA14EA18B
:101760005FA10E9493156B017C0120E030E0A9018C
:101770000E94001618161CF0C12CD12C7601C7014E
:10178000B6010E9423184B015C01609341057093E0
:10179000420580934305909344056091370570910D
:1017A00038058091350590913605681B790B072E19
:1017B000000C880B990B0E94B4162BAD3CAD4DADBF
:1017C0005EAD0E94A81720E030E040E05FE30E9499
:1017D000A8172B013C016093450570934605809343
:1017E00047059093480520E030E048EC52E4C501FD
:1017F000B4010E94A31718166CF4A5019401C3014B
:10180000B2010E940A166D966CAF7DAF8EAF9FAF8E
:101810006D970AC000E010E020E83FE36D960CAF42
:101820001DAF2EAF3FAF6D976091120570911305FC
:1018300080911405909115058B01080F191F619671
:101840001FAF0EAF619710931505009314052091FB
:101850000E0530910F0540911005509111052F96FE
:101860006CAD7DAD8EAD9FAD2F970E9494156596A2
:101870006CAF7DAF8EAF9FAF659760930E05709391
:101880000F05809310059093110520E030E0A90129
:1018900060910A0570910B0580910C0590910D05E2
:1018A0000E94001681113AC060913D0570913E057D
:1018B00080913F05909140050E94B4162B962CAD67
:1018C0003DAD4EAD5FAD2B970E94A8172091060548
:1018D0003091070540910805509109050E94A8170D
:1018E0002CA13DA14EA15FA10E949315A7019601D5
:1018F0000E940A16AB01BC0140930A0550930B05E8
:1019000060930C0570930D0524E080E692E00E9440
:10191000BA060E94C90311E01AAB01C01AAAC0900E
:101920000A05D0900B05E0900C05F0900D05A196EE
:10193000CCAEDDAEEEAEFFAEA1972090200430908D
:101940002104E0905604F09057040091580410913F
:101950005904EBAAFCAA0DAB1EAB00911E0410911A
:101960001F04C0905204D0905304E0905404F090AF
:101970005504CCA2DDA2EEA2FFA22AE534E039A7ED
:1019800028A742E454E059AB48AB1FA61EA62796F1
:101990001CAE1DAE1EAE1FAE2797A8A5B9A58C9193
:1019A000882309F419C2EEA5FFA5EC5DFE4F8080E7
:1019B0009180A280B3802B962CAD3DAD4EAD5FAD36
:1019C0002B97C501B4010E94A8176B017C01A501EA
:1019D00094010E94A8172B013C012BAD3CAD4DADED
:1019E0005EADC701B6010E94A8176FAB78AF89AF93
:1019F0009AAFE8A5F9A563857485858596850E94CB
:101A0000B416A70196010E94A8176B017C0120E083
:101A100030E0A901A8A9B9A96D917D918D919C9102
:101A20000E940016811106C0E8A9F9A9C082D182DE
:101A3000E282F38224EA30E74DE75FE3A8A9B9A97F
:101A40006D917D918D919C910E94A8174B015C0135
:101A500020E037ED43E25CE3C701B6010E94A8171E
:101A60009B01AC01C501B4010E9494156B017C017E
:101A7000E8A9F9A960837183828393839B01AC01F8
:101A800023966CAD7DAD8EAD9FAD23970E94A817B8
:101A90004B015C01A8A5B9A51F966D917D918D9113
:101AA0009C9152970E94B216A30192010E94A8171E
:101AB0002B013C01A7019601C701B6010E94A8179E
:101AC0009B01AC01C301B2010E9493156B017C0123
:101AD00020E030E0A9010E94001618161CF0C12C6D
:101AE000D12C7601C701B6010E9423189B01AC01DD
:101AF000E8A5F9A5678F70A381A392A327966CAD83
:101B00007DAD8EAD9FAD27970E94941527966CAF43
:101B10007DAF8EAF9FAF2797A8A5B9A557966D91BA
:101B20007D918D919C915A970E94B4162FA938AD42
:101B300049AD5AAD0E94A817A50194010E949315C2
:101B400069966CAF7DAF8EAF9FAF6997E8A5F9A599
:101B5000638D748D858D968D0E94B4162FA938AD36
:101B600049AD5AAD0E94A817A50194010E94931592
:101B70006B017C0169962CAD3DAD4EAD5FAD6997B3
:101B8000A1966CAD7DAD8EAD9FADA1970E94A817BB
:101B90009B01AC01C701B6010E9493156FAB78AFF2
:101BA00089AF9AAFEEA5FFA5EE5CFB4FC080D18058
:101BB000E280F380EEA5FFA5EE5DFB4F8080918073
:101BC000A280B38069962CAD3DAD4EAD5FAD6997F7
:101BD000C701B6010E94A8172B013C012FA938ADFF
:101BE00049AD5AADC501B4010E94A8179B01AC01D3
:101BF000C301B2010E9493152B013C01A8A5B9A510
:101C000093966D937D938D939C93969769962CAD47
:101C10003DAD4EAD5FAD6997C501B4010E94A817F7
:101C20004B015C012FA938AD49AD5AADC701B601D2
:101C30000E94A8179B01AC01C501B4010E94941534
:101C40006B017C01E8A5F9A567A370A781A792A7FE
:101C5000B101330C880B990B0E94B4164B015C0147
:101C6000A30192012F966CAD7DAD8EAD9FAD2F97E8
:101C70000E94A8179B01AC01C501B4010E949415F4
:101C80000E947C161B01B801110F880B990B0E9452
:101C9000B4164B015C01A70196012F966CAD7DAD8A
:101CA0008EAD9FAD2F970E94A8179B01AC01C50177
:101CB000B4010E9494150E947C168B018BA99CA9EB
:101CC000ADA9BEA9F82FE92F3A2F2B2F0196A11D00
:101CD000B11D41E124164EE034062CF0F0E12F1A3C
:101CE000FEE03F0AEFCF4F2F5E2F632F722FDB01F5
:101CF000CA014150510961097109E0EF2E16E1EF67
:101D00003E062CF480EF281A81EF380AF0CF4CA160
:101D10005DA16EA17FA17A01F62FE72F4F5F5F4F84
:101D20006F4F7F4F01312EE012071CF000511E4013
:101D3000F2CF4701AF2EBE2EB501A40131E0831AC8
:101D40009108A108B108003FE1EF1E071CF4005FF5
:101D5000114FF2CFB42EE52F362F272FCBA8DCA8BA
:101D6000EDA8FEA8F1E0CF16D104E104F0E7FF06EC
:101D70001CF0B7FF13C00FC0CBA8DCA8EDA8FEA8CD
:101D8000C114D104E104F0E9FF0644F41816190661
:101D90001A061B061CF480E090E0DC01CCA0DDA05C
:101DA000EEA0FFA0F1E0CF16D104E104F0E7FF06BA
:101DB0001CF077FF1EC019C0CCA0DDA0EEA0FFA0D4
:101DC000C114D104E104F0E9FF069CF414161506D1
:101DD0001606170654F00DC08BA99CA9ADA9BEA983
:101DE000BCA0EDA13EA12FA104C0B12CE0E030E0E9
:101DF00020E048A559A5455D5F4F59A748A76EA5A6
:101E00007FA56C5F7F4F7FA76EA748A959A94C5F3C
:101E10005F4F59AB48AB6031710549F08BAB9CAB60
:101E2000ADABBEABBCA2EDA33EA32FA3B6CD10932A
:101E30001F0400931E04B0925204E09353043093A5
:101E4000540420935504309221042092200480935E
:101E5000560490935704A0935804B093590480916A
:101E60001A0490911B04A0911C04B0911D040097CA
:101E7000A105B10599F0CAA4DBA4ECA4FDA4C81A7D
:101E8000D90AEA0AFB0A11E001E4C01602E4D0060E
:101E90000FE0E006F10418F410E001C011E0C0907A
:101EA0000701D0900801E0900901F0900A0120E0BC
:101EB00030EC49E754ECC701B6010E9400168823B4
:101EC00099F1A701960127966CAD7DAD8EAD9FADC2
:101ED00027970E9493159F772DEC3CEC4CE85FE32D
:101EE0000E94A317181604F180911604909117040C
:101EF000A0911804B0911904CAA4DBA4ECA4FDA419
:101F0000C81AD90AEA0AFB0A01E021E4C21622E44F
:101F1000D2062FE0E206F10408F400E0111105C03A
:101F2000002309F40EC101C001E040914105509128
:101F30004205609143057091440522E085E692E0F8
:101F40000E94BA066196CEACDFAC6197C114D10491
:101F500069F120E030E0A90165966CAD7DAD8EADF4
:101F60009FAD65970E94A317181604F5B60180E08F
:101F700090E00E94B21665962CAD3DAD4EAD5FADC2
:101F800065970E940A16AB01BC0123E08AE692E045
:101F90000E94BA06109215051092140510920E05B3
:101FA00010920F05109210051092110523E06D9606
:101FB0004CAD5DAD6EAD7FAD6D978FE692E00E944A
:101FC000BA06CAA4DBA4ECA4FDA4C0921A04D09261
:101FD0001B04E0921C04F0921D04002309F4AFC01E
:101FE00085E0E3E9F2E0DE015F9601900D928A95CB
:101FF000E1F785E0E8E9F2E0DE015A9601900D9202
:102000008A95E1F785E0EDE9F2E0DE015596019071
:102010000D928A95E1F785E0E2EAF2E0DE01509662
:1020200001900D928A95E1F709E714E030E3F32E71
:10203000F8017F978081882309F45EC0FAA2D80155
:102040004D915D916D917C9123E0CE014F960E9460
:10205000BA06FD8EF801448155816681778121E0C1
:10206000CE014A960E94BA06F88ED80118964D9174
:102070005D916D917C911B9721E0CE0145960E9468
:10208000BA06209141053091420540914305509197
:102090004405F80160817181828193810E94A817B3
:1020A0004B015C0120E030E040EF51E40E94A317B7
:1020B0001816C4F4D80114964D905D906D907C90E4
:1020C0001797A3019201C501B4010E94A31787FDD0
:1020D00009C0A5019401C301B2010E940A16AB0117
:1020E000BC0104C040E050E060E87FE3FB8A24E0EC
:1020F000CE0140960E94BA06F394055D1F4FB4E3EB
:10210000FB1296CFCAA4DBA4ECA4FDA4C0921604D3
:10211000D0921704E0921804F09219042796ECACC0
:10212000FDAC0EAD1FAD2797E0920701F0920801BC
:102130000093090110930A0101E00AAB02C011E00B
:102140001AAB8091120490911304A0911404B091E1
:1021500015040097A105B10581F0CAA4DBA4ECA485
:10216000FDA4C81AD90AEA0AFB0A01E4C01602E46F
:10217000D0060FE0E006F10440F140915604509182
:102180005704609158047091590421E084E792E06B
:102190000E946E0340915204509153046091540484
:1021A0007091550421E089E792E00E946E03CAA471
:1021B000DBA4ECA4FDA4C0921204D0921304E0921C
:1021C0001404F092150401E00AABCAA4DBA4ECA449
:1021D000FDA4C0921E05D0921F05E0922005F0924A
:1021E0002105109213051092120582E295E00E94DB
:1021F000F2028AE594E00E94F20285E894E00E94EF
:10220000F20280EB94E00E94F2028BED94E00E94D7
:10221000F202DAA8DD2009F444C00E9400044091D3
:10222000110450E060E070E021E08EE792E00E944F
:102230006E034091ED035091EE0360E070E021E009
:1022400083E892E00E946E032FB7F8948091E9032F
:102250009091EA03A091EB03B091EC032FBFAC0186
:10226000BD012AE076956795579547952A95D1F750
:1022700040930D0450930E0460930F047093100468
:102280008093090490930A04A0930B04B0930C0468
:1022900021E088E892E00E9413030E94C903109293
:1022A000110485E080934D050C94EA08CC24C39476
:1022B000FC100C94E20880910501882321F182E250
:1022C00095E00E94F2028AE594E00E94F20285E81D
:1022D00094E00E94F20280EB94E00E94F2028BED07
:1022E00094E00E94F20210920501109211048B8575
:1022F0009C85AD85BE8580931E0590931F05A09398
:102300002005B093210589819A81909326058093B9
:1023100025052B813C8130935E0420935D042D8143
:102320003E8130938904209388042F81388530932F
:10233000B4042093B30429853A853093DF042093B5
:10234000DE0420912205211104C0181619060CF094
:1023500043C020912305309124052115310541F416
:102360009093380580933705909336058093350513
:1023700040913505509136058417950724F49093C4
:10238000360580933505409137055091380548173B
:10239000590724F49093380580933705092E000CD3
:1023A000AA0BBB0B40912D0550912E0560912F0576
:1023B00070913005840F951FA61FB71F80932D05C0
:1023C00090932E05A0932F05B0933005C901019677
:1023D00090932405809323050AE514E0F8012081F9
:1023E00083819481211103C0181619065CF521819F
:1023F00032812115310521F4968B858B948B838B4B
:10240000438954898417950714F4948B838B4589E9
:1024100056894817590714F4968B858B092E000CA2
:10242000AA0BBB0B4385548565857685840F951F64
:10243000A61FB71F83879487A587B6872F5F3F4F57
:1024400032832183BB9625E0E630F20741F6809186
:10245000F8039091F90301969093F9038093F803A0
:10246000803A9F4010F40C94E0088BE791E00E94C2
:10247000D8058B859C85AD85BE85C0901E05D09006
:102480001F05E0902005F0902105BC01CD016C19DD
:102490007D098E099F092091F8033091F90340E0EE
:1024A00050E00E94CC182093010430930204409322
:1024B00003045093040480E991E00E94D6056091E2
:1024C00001047091020480910304909104040E941D
:1024D0000507F09022052091230530912405F11085
:1024E00011C02115310509F46EC080912D05909120
:1024F0002E05A0912F05B0913005892B8A2B8B2BAF
:1025000009F461C040E050E060912D0570912E0506
:1025100080912F05909130050E94EE1881E0809304
:1025200022058091AA039091AB03892B09F4A2C2E2
:1025300010922D0510922E0510922F051092300545
:1025400010922405109223058CE991E0A2962FAFFA
:10255000A297A3963FAFA397A4964FAFA497A59633
:102560005FAFA5970E94D605A2962FADA297A3961E
:102570003FADA397B901330F880B990B0E949A05C1
:1025800080EB91E00E94D60560913505709136058B
:10259000072E000C880B990B0E949A058AEB91E09C
:1025A0000E94D60580913705909138050E94C40598
:1025B00020E1A22E21E0B22EC12CD12C7601912C4B
:1025C000882483941DC08CEB91E00E94D8050C9464
:1025D000E008F80180812181328181111FC021151D
:1025E0003105A1F4055D1F4FBFEFCB1ADB0AEB0AE3
:1025F000FB0AE4E0CE16D104E104F10409F460C062
:10260000D5018D915D01882369F3E3CF838594859E
:10261000A585B685892B8A2B8B2B21F340E050E0D2
:10262000D8011B966D917D918D919C911E970E9472
:10263000EE1829013A019394F8018082F60131964F
:10264000EE0FFF1FE655FC4F80819181892B09F425
:1026500016C2D8011B961D921D921D921C921E97A8
:1026600012961C921E92119786ED91E00E94D6055B
:102670004AE0C701B6010E9459058FED91E00E9422
:10268000D605B201550C880B990B0E949A0580EB78
:1026900091E00E94D605F80163897489072E000C29
:1026A000880B990B0E949A058AEB91E00E94D6054F
:1026B000D80155968D919C9156970E94C40592CF52
:1026C000911007C08DEE91E00E94D805F12C0C947A
:1026D000E0081092F9031092F80381E0809305015D
:1026E00010921E0510921F051092200510922105D0
:1026F00082E295E00E94F20282E0F82E0C94E0085B
:1027000093E0D92EFD104AC080911E0590911F05BF
:10271000A0912005B0912105892B8A2B8B2B61F488
:102720008B859C85AD85BE8580931E0590931F0586
:10273000A0932005B0932105809125059091260551
:10274000909328058093270589819A819093260587
:10275000809325050E94FB02809127059091280512
:1027600097FD02C00C94E008809125059091260504
:1027700097FF02C00C94E008809112059091130518
:10278000019690931305809312058837910510F4F4
:102790000C94E00814E0F12E0C94E00885E0E82E9B
:1027A000FE100C94E20880911E0590911F05A091E7
:1027B0002005B0912105892B8A2B8B2B81F48B85E9
:1027C0009C85AD85BE8580931E0590931F05A093C3
:1027D0002005B0932105109213051092120549802F
:1027E0005A80809125059091260590932805809325
:1027F00027055092260540922505C2010E94FB0242
:10280000E0910601E85E80910004E81BE83110F0D9
:10281000E851FCCFF0E0EE0FFF1FE754FC4FC08003
:10282000D18040912D0550912E0560912F0570911A
:102830003005C201052C000CAA0BBB0B840F951FA1
:10284000A61FB71F80932D0590932E05A0932F05EB
:10285000B0933005409131055091320560913305B8
:1028600070913405920122243302600D711D229F64
:10287000400D511D621D721D32037209500D611D04
:10288000721D32037209500D611D721D1124409397
:10289000310550933205609333057093340520E081
:1028A00030E0A90160910A0570910B0580910C053B
:1028B00090910D050E940016811126C040913D05A2
:1028C00050913E0560913F0570914005820196014F
:1028D00022243102600D711D209F400D511D621D8B
:1028E000721D30037209500D611D721D12037209B1
:1028F000500D611D721D112440933D0550933E05FE
:1029000060933F05709340058091230590912405C5
:10291000019690932405809323058091370590912B
:1029200038058415950524F45092380540923705F2
:1029300080913505909136054816590624F4509239
:10294000360540923505DE011396EAE5F4E06D9018
:102950007D908081882309F477C083819481968358
:10296000858374826382A301072C000C660B770BAE
:1029700083849484A584B684480D591D6A1D7B1DEB
:10298000438754876587768747855089618972892F
:10299000830122241102600D711D009F400D511D05
:1029A000621D721D10037209500D611D721D10030E
:1029B0007209500D611D721D11244787508B618B68
:1029C000728B4789508D618D728D93018201222413
:1029D0001302600D711D029F400D511D621D721D7D
:1029E00012037209500D611D721D30037209500DE2
:1029F000611D721D1124478B508F618F728F438D23
:102A0000548D658D768D9A01AB01B3018601222428
:102A10001702400D511D069F200D311D421D521DF4
:102A200016035209300D411D521D70035209300D1D
:102A3000411D521D1124238F348F458F568F818164
:102A40009281019692838183BB9615E0E630F1076F
:102A500009F07DCF809127059091280597FD02C050
:102A60000C94E008809125059091260597FF0AC0F7
:102A70000C94E0083093AB032093AA0359CD318323
:102A80002083E7CD809112059091130501969093D4
:102A90001305809312058B859C85AD85BE8540917D
:102AA0001E0550911F056091200570912105841B22
:102AB000950BA60BB70B80349244AF40B10510F4D0
:102AC0000C94E008A6E0FA2E0C94E008EFEDF6E096
:102AD0001382128288EE93E0A0E0B0E084839583B5
:102AE000A683B78388E391E09183808385EC90E0AF
:102AF0009587848784EC90E09787868780EC90E0C8
:102B0000918B808B81EC90E0938B828B82EC90E0B8
:102B1000958B848B86EC90E0978B868B118E128E32
:102B2000138E148E08955058BB27AA270E94AB1508
:102B30000C9455170E941C1738F00E94231720F0A0
:102B400039F49F3F19F426F40C9419170EF4E0950C
:102B5000E7FB0C941317E92F0E947A1758F3BA1762
:102B6000620773078407950720F079F4A6F50C94A3
:102B70009C170EF4E0950B2EBA2FA02D0B01B90176
:102B800090010C01CA01A0011124FF27591B99F0E3
:102B9000593F50F4503E68F11A16F040A22F232FEF
:102BA000342F4427585FF3CF469537952795A7953F
:102BB000F0405395C9F77EF41F16BA0B620B730BE6
:102BC000840BBAF09150A1F0FF0FBB1F661F771F57
:102BD000881FC2F70EC0BA0F621F731F841F48F40C
:102BE000879577956795B795F7959E3F08F0B0CF95
:102BF0009395880F08F09927EE0F9795879508957C
:102C00000E94EF1608F481E008950E942C17E395C6
:102C10000C9466170E941E160C9455170E942317D9
:102C200058F00E941C1740F029F45F3F29F00C94E3
:102C3000131751110C949D170C9419170E947A17B1
:102C400068F39923B1F3552391F3951B550BBB27DB
:102C5000AA2762177307840738F09F5F5F4F220F20
:102C6000331F441FAA1FA9F335D00E2E3AF0E0E817
:102C700032D091505040E695001CCAF72BD0FE2F61
:102C800029D0660F771F881FBB1F261737074807F5
:102C9000AB07B0E809F0BB0B802DBF01FF279358AD
:102CA0005F4F3AF09E3F510578F00C9413170C9447
:102CB0009D175F3FE4F3983ED4F38695779567952B
:102CC000B795F7959F5FC9F7880F911D96958795E2
:102CD00097F90895E1E0660F771F881FBB1F621701
:102CE00073078407BA0720F0621B730B840BBA0BBF
:102CF000EE1F88F7E09508950E9483166894B1113D
:102D00000C949D1708950E94821788F09F5798F0A1
:102D1000B92F9927B751B0F0E1F0660F771F881FE0
:102D2000991F1AF0BA95C9F714C0B13091F00E94FA
:102D30009C17B1E008950C949C17672F782F882773
:102D4000B85F39F0B93FCCF3869577956795B39521
:102D5000D9F73EF490958095709561957F4F8F4F90
:102D60009F4F0895E89409C097FB3EF49095809595
:102D7000709561957F4F8F4F9F4F9923A9F0F92F41
:102D800096E9BB279395F695879577956795B795BF
:102D9000F111F8CFFAF4BB0F11F460FF1BC06F5FA5
:102DA0007F4F8F4F9F4F16C0882311F096E911C0B7
:102DB000772321F09EE8872F762F05C0662371F0D8
:102DC00096E8862F70E060E02AF09A95660F771FEC
:102DD000881FDAF7880F9695879597F90895990FC8
:102DE0000008550FAA0BE0E8FEEF16161706E807D5
:102DF000F907C0F012161306E407F50798F0621BF6
:102E0000730B840B950B39F40A2661F0232B242BCA
:102E1000252B21F408950A2609F4A140A6958FEFE9
:102E2000811D811D089597F99F6780E870E060E03B
:102E300008959FEF80EC089500240A941616170653
:102E400018060906089500240A941216130614069B
:102E5000050608950C9419170E948217D8F3E89478
:102E6000E0E0BB279F57F0F02AED3FE049EC06C0B9
:102E7000EE0FBB0F661F771F881F28F0B23A62075C
:102E80007307840728F0B25A620B730B840BE39527
:102E90009A9572F7803830F49A95BB0F661F771FAA
:102EA000881FD2F790480C946A18092E0394000CDE
:102EB00011F4882352F0BB0F40F4BF2B11F460FFD4
:102EC00004C06F5F7F4F8F4F9F4F0895EF93E0FFD8
:102ED00007C0A2EA2AED3FE049EC5FEB0E94AB1588
:102EE0000E9455170F90039401FC9058E8E6F0E01B
:102EF0000C947D1857FD9058440F551F59F05F3FB3
:102F000071F04795880F97FB991F61F09F3F79F00B
:102F100087950895121613061406551FF2CF46958D
:102F2000F1DF08C0161617061806991FF1CF86950F
:102F30007105610508940895E894BB2766277727F3
:102F4000CB0197F908950E94EF1608F48FEF0895CA
:102F50000E94BB170C9455170E941C1738F00E9452
:102F6000231720F0952311F00C9413170C941917C4
:102F700011240C949D170E947A1770F3959FC1F34A
:102F8000950F50E0551F629FF001729FBB27F00D17
:102F9000B11D639FAA27F00DB11DAA1F649F66276C
:102FA000B00DA11D661F829F2227B00DA11D621FBB
:102FB000739FB00DA11D621F839FA00D611D221F75
:102FC000749F3327A00D611D231F849F600D211D59
:102FD000822F762F6A2F11249F5750409AF0F1F0DC
:102FE00088234AF0EE0FFF1FBB1F661F771F881F45
:102FF00091505040A9F79E3F510580F00C94131753
:103000000C949D175F3FE4F3983ED4F38695779533
:103010006795B795F795E7959F5FC1F7FE2B880FEA
:10302000911D9695879597F908959F930E942C1767
:103030000F9007FCEE5F0C94661719F416F40C94CD
:1030400019170C9468180E948217B8F39923C9F3D2
:10305000B6F39F57550B87FF0E9476180024A0E611
:1030600040EA900180585695979528F4805C660F49
:10307000771F881F20F026173707480730F4621B98
:10308000730B840B202931294A2BA695179407949A
:10309000202531254A2758F7660F771F881F20F013
:1030A00026173707480730F4620B730B840B200D8B
:1030B000311D411DA09581F7B901842F9158880FCA
:1030C0009695879508950E94EF16880B990B0895A1
:1030D0009F3F31F0915020F4879577956795B7958C
:1030E000880F911D9695879597F9089591505040B6
:1030F000660F771F881FD2F708959F938F937F9352
:103100006F93FF93EF939B01AC010E94A817EF917F
:10311000FF910E9491182F913F914F915F910C94D4
:10312000A817DF93CF931F930F93FF92EF92DF9235
:103130007B018C01689406C0DA2EEF010E94BB1758
:10314000FE01E894A5912591359145915591A6F3FD
:10315000EF010E94AB15FE019701A801DA9469F70F
:10316000DF90EF90FF900F911F91CF91DF91089525
:1031700097FB072E16F4009407D077FD09D00E9424
:103180000D1907FC05D03EF4909581959F4F089549
:10319000709561957F4F0895A1E21A2EAA1BBB1B63
:1031A000FD010DC0AA1FBB1FEE1FFF1FA217B30713
:1031B000E407F50720F0A21BB30BE40BF50B661F29
:1031C000771F881F991F1A9469F7609570958095ED
:1031D00090959B01AC01BD01CF010895052E97FB91
:1031E0001EF400940E94051957FD07D00E94CC18C8
:1031F00007FC03D04EF40C9405195095409530957A
:1032000021953F4F4F4F5F4F089590958095709552
:1032100061957F4F8F4F9F4F0895AA1BBB1B51E1B4
:1032200007C0AA1FBB1FA617B70710F0A61BB70B36
:10323000881F991F5A95A9F780959095BC01CD01DB
:103240000895EE0FFF1F0590F491E02D099481E0A1
:1032500090E0F8940C943B19FB01DC014150504084
:1032600048F001900D920020C9F701C01D92415015
:0A3270005040E0F70895F894FFCFF6
:10327A0001CA01CA01011800C079C400010203048D
:10328A000101010100000000000000000000000030
:10329A00000000000000963E0000963E0000963EA8
:1032AA0000005C3D0000000032019B00CA00790169
:1032BA00FB00D900ED0023454D4F4E5458332D6382
:1032CA006F6E74696E756F75733D7600657665729B
:1032DA0000766D616E002353544154455F53544147
:1032EA004220636F6D706C657465002353544154BA
:1032FA00455F5343414E20636F6D706C6574650082
:10330A00237473616D706C65203D2000237673749D
:10331A006174732E76616C5F6D65616E203D20006D
:10332A00206D696E2F6D61783D002F002345525242
:10333A004F52202D206E6F20766F6C746167652066
:10334A00696E70757400236973746174735B005DD0
:10335A002E76616C5F6D65616E203D2000234552BB
:10336A00524F52202D206E6F2063757272656E74F3
:10337A0020696E7075747320656E61626C65640095
:10338A002353544154455F5A45524F202D20743DD2
:10339A00002353544154455F465245513A766D6174
:1033AA00696E735F706572696F643D00235354419F
:1033BA0054455F465245513A766D61696E735F7145
:1033CA007561646C6F6F6B6261636B3D000D0A001F
:1033DA007664656C0076726D73007666727100763B
:1033EA0063727300656E616300656E726500616485
:1033FA006364006E6F7672007570746D005F003AD8
:10340A00002C0069726D3000706163300070726563
:10341A003000706F77300070756C7365006E616E86
:0A342A0000696E66006F7666000010
:00000001FF
